{
  "_format": "hh-sol-artifact-1",
  "contractName": "Swapping",
  "sourceName": "contracts/Swapping.sol",
  "abi": [
    {
      "inputs": [
        {
          "internalType": "contract ISwapRouter",
          "name": "contractSwap",
          "type": "address"
        },
        {
          "internalType": "contract IERC20",
          "name": "contractWeth9",
          "type": "address"
        }
      ],
      "stateMutability": "nonpayable",
      "type": "constructor"
    },
    {
      "inputs": [
        {
          "internalType": "uint256",
          "name": "amountIn",
          "type": "uint256"
        },
        {
          "internalType": "address",
          "name": "tokenIn",
          "type": "address"
        },
        {
          "internalType": "address",
          "name": "tokenOut",
          "type": "address"
        }
      ],
      "name": "exactInput",
      "outputs": [
        {
          "internalType": "uint256[]",
          "name": "amount",
          "type": "uint256[]"
        }
      ],
      "stateMutability": "nonpayable",
      "type": "function"
    }
  ],
  "bytecode": "0x60c06040523480156200001157600080fd5b5060405162000c9938038062000c9983398181016040528101906200003791906200016a565b8173ffffffffffffffffffffffffffffffffffffffff1660808173ffffffffffffffffffffffffffffffffffffffff16815250508073ffffffffffffffffffffffffffffffffffffffff1660a08173ffffffffffffffffffffffffffffffffffffffff16815250505050620001b1565b600080fd5b600073ffffffffffffffffffffffffffffffffffffffff82169050919050565b6000620000d982620000ac565b9050919050565b6000620000ed82620000cc565b9050919050565b620000ff81620000e0565b81146200010b57600080fd5b50565b6000815190506200011f81620000f4565b92915050565b60006200013282620000cc565b9050919050565b620001448162000125565b81146200015057600080fd5b50565b600081519050620001648162000139565b92915050565b60008060408385031215620001845762000183620000a7565b5b600062000194858286016200010e565b9250506020620001a78582860162000153565b9150509250929050565b60805160a051610abe620001db600039600050506000818161013f01526102ec0152610abe6000f3fe608060405234801561001057600080fd5b506004361061002b5760003560e01c80630843d19114610030575b600080fd5b61004a60048036038101906100459190610446565b610060565b6040516100579190610557565b60405180910390f35b60608273ffffffffffffffffffffffffffffffffffffffff166323b872dd3330876040518463ffffffff1660e01b815260040161009f93929190610597565b6020604051808303816000875af11580156100be573d6000803e3d6000fd5b505050506040513d601f19601f820116820180604052508101906100e29190610606565b610121576040517f08c379a000000000000000000000000000000000000000000000000000000000815260040161011890610690565b60405180910390fd5b8273ffffffffffffffffffffffffffffffffffffffff1663095ea7b37f0000000000000000000000000000000000000000000000000000000000000000866040518363ffffffff1660e01b815260040161017c9291906106b0565b6020604051808303816000875af115801561019b573d6000803e3d6000fd5b505050506040513d601f19601f820116820180604052508101906101bf9190610606565b6101fe576040517f08c379a00000000000000000000000000000000000000000000000000000000081526004016101f590610725565b60405180910390fd5b6000600267ffffffffffffffff81111561021b5761021a610745565b5b6040519080825280602002602001820160405280156102495781602001602082028036833780820191505090505b509050838160008151811061026157610260610774565b5b602002602001019073ffffffffffffffffffffffffffffffffffffffff16908173ffffffffffffffffffffffffffffffffffffffff168152505082816001815181106102b0576102af610774565b5b602002602001019073ffffffffffffffffffffffffffffffffffffffff16908173ffffffffffffffffffffffffffffffffffffffff16815250507f000000000000000000000000000000000000000000000000000000000000000073ffffffffffffffffffffffffffffffffffffffff166338ed17398660008433426040518663ffffffff1660e01b815260040161034c9594939291906108a6565b6000604051808303816000875af115801561036b573d6000803e3d6000fd5b505050506040513d6000823e3d601f19601f820116820180604052508101906103949190610a3f565b9150509392505050565b6000604051905090565b600080fd5b600080fd5b6000819050919050565b6103c5816103b2565b81146103d057600080fd5b50565b6000813590506103e2816103bc565b92915050565b600073ffffffffffffffffffffffffffffffffffffffff82169050919050565b6000610413826103e8565b9050919050565b61042381610408565b811461042e57600080fd5b50565b6000813590506104408161041a565b92915050565b60008060006060848603121561045f5761045e6103a8565b5b600061046d868287016103d3565b935050602061047e86828701610431565b925050604061048f86828701610431565b9150509250925092565b600081519050919050565b600082825260208201905092915050565b6000819050602082019050919050565b6104ce816103b2565b82525050565b60006104e083836104c5565b60208301905092915050565b6000602082019050919050565b600061050482610499565b61050e81856104a4565b9350610519836104b5565b8060005b8381101561054a57815161053188826104d4565b975061053c836104ec565b92505060018101905061051d565b5085935050505092915050565b6000602082019050818103600083015261057181846104f9565b905092915050565b61058281610408565b82525050565b610591816103b2565b82525050565b60006060820190506105ac6000830186610579565b6105b96020830185610579565b6105c66040830184610588565b949350505050565b60008115159050919050565b6105e3816105ce565b81146105ee57600080fd5b50565b600081519050610600816105da565b92915050565b60006020828403121561061c5761061b6103a8565b5b600061062a848285016105f1565b91505092915050565b600082825260208201905092915050565b7f7472616e7366657246726f6d206661696c656400000000000000000000000000600082015250565b600061067a601383610633565b915061068582610644565b602082019050919050565b600060208201905081810360008301526106a98161066d565b9050919050565b60006040820190506106c56000830185610579565b6106d26020830184610588565b9392505050565b7f617070726f7665206661696c6564000000000000000000000000000000000000600082015250565b600061070f600e83610633565b915061071a826106d9565b602082019050919050565b6000602082019050818103600083015261073e81610702565b9050919050565b7f4e487b7100000000000000000000000000000000000000000000000000000000600052604160045260246000fd5b7f4e487b7100000000000000000000000000000000000000000000000000000000600052603260045260246000fd5b6000819050919050565b6000819050919050565b60006107d26107cd6107c8846107a3565b6107ad565b6103b2565b9050919050565b6107e2816107b7565b82525050565b600081519050919050565b600082825260208201905092915050565b6000819050602082019050919050565b61081d81610408565b82525050565b600061082f8383610814565b60208301905092915050565b6000602082019050919050565b6000610853826107e8565b61085d81856107f3565b935061086883610804565b8060005b838110156108995781516108808882610823565b975061088b8361083b565b92505060018101905061086c565b5085935050505092915050565b600060a0820190506108bb6000830188610588565b6108c860208301876107d9565b81810360408301526108da8186610848565b90506108e96060830185610579565b6108f66080830184610588565b9695505050505050565b600080fd5b6000601f19601f8301169050919050565b61091f82610905565b810181811067ffffffffffffffff8211171561093e5761093d610745565b5b80604052505050565b600061095161039e565b905061095d8282610916565b919050565b600067ffffffffffffffff82111561097d5761097c610745565b5b602082029050602081019050919050565b600080fd5b6000815190506109a2816103bc565b92915050565b60006109bb6109b684610962565b610947565b905080838252602082019050602084028301858111156109de576109dd61098e565b5b835b81811015610a0757806109f38882610993565b8452602084019350506020810190506109e0565b5050509392505050565b600082601f830112610a2657610a25610900565b5b8151610a368482602086016109a8565b91505092915050565b600060208284031215610a5557610a546103a8565b5b600082015167ffffffffffffffff811115610a7357610a726103ad565b5b610a7f84828501610a11565b9150509291505056fea26469706673582212200490c6ba45a457cff80bec6bb4a9b51a39cdb8abf6bc7f9cde1b6867b7dd78a864736f6c63430008130033",
  "linkReferences": {},
  "deployedLinkReferences": {}
}